:02000000EC28EA
:1000080070082000A1007108A0008031111D81280E
:100018002908003C031D1A282808003C031D1A283B
:100028002708003C031D1A282608003C03184C2802
:1000380000302902031D2A2800302802031D2A281F
:1000480030302702031D2A28D430260203184C28F2
:100058000D1C41280D108C13D430A2003030A300A1
:100068000030A4000030A5002608A2022708A33B00
:100078002808A43B2908A53B4B280D148C172608F3
:10008800A2002708A3002808A4002908A5007128B1
:100098002908003A031D5A282808003A031D5A283F
:1000A8002708303A031D5A282608D43A031D5E282B
:1000B8000D148C170030F0002906031D6D287008F8
:1000C8002806031D6D2870082706031D6D282608BD
:1000D800003A031D71280D108C132308F000240822
:1000E800F1002508F200F3017008250092002000B5
:1000F800220825009100200011112108F000200895
:04010800F1000900F9
:10010C00FF302000B600FF30B700FF30B800FF30E2
:10011C00B900FF30AA00FF30AB000030AC0000305B
:10012C00AD00FF30AE00FF30AF000030B00000304B
:10013C00B100FF30B200FF30B3000030B40000302B
:10014C00B50023009E1690309D0021008D140D11DA
:10015C002000911EB52823001908F000AE280800D5
:10016C0012001E00F003031DB628F103031DB62870
:02017C00080079
:10017E00220091019301193021008C0002308D0074
:10018E0020008D018C0130309800970196010B30C4
:10019E00250093002000A201A301A401A5011111C5
:1001AE0021001115C0308B0035302000980023003F
:1001BE008C018D0122001E149D1723009F15CF3038
:0A01CE009B009C011E15862008000E
:1001D8002000A201A301A401A501A601A701A8016D
:1001E800A901BF206A302000A6001830A700A80186
:0601F800A901F628FE2813
:020000040001F9
:04000E00E23F1316A4
:00000001FF
