:020000008B284B
:1000080070082000A1007108A0008031111D7D2812
:100018002908003C031D1A282808003C031D1A283B
:100028002708003C031D1A282608003C03184A2804
:1000380000302902031D2A2800302802031D2A281F
:1000480030302702031D2A28D430260203184A28F4
:100058000D1D40280D11D430A2003030A30000300F
:10006800A4000030A5002608A2022708A33B280800
:10007800A43B2908A53B49280D152608A2002708F6
:10008800A3002808A4002908A5006D282908003A1B
:10009800031D58282808003A031D58282708303A15
:1000A800031D58282608D43A031D5B280D15003077
:1000B800F0002906031D6A2870082806031D6A280F
:1000C80070082706031D6A282608003A031D6D28B4
:1000D8000D112308F0002408F1002508F200F301AF
:1000E80070082500920020002208250091002000B9
:0C00F80011112108F0002008F10009009F
:1001040012001E00F003031D8228F103031D822840
:020114000800E1
:100116002000A201A301A401A501A601A701A8012F
:10012600A90121008D0120008D0130309800970132
:1001360096010B30250093002000A201A301A40123
:10014600A501111121001115C0308B00313020009E
:1001560098006A30A6001830A700A801A90133301C
:10016600FB00BB30FC00DF30FD00FD0BB828FC0BAC
:10017600B828FB0BB82800000000E230A6000430C7
:10018600A700A801A9013330FB00BB30FC00DF301B
:10019600FD00FD0BCC28FC0BCC28FB0BCC2800006B
:1001A6000000D430A6003030A700A801A9013330E2
:1001B600FB00BB30FC00DF30FD00FD0BE028FC0B34
:1001C600E028FB0BE02800000000A601A701A8011B
:1001D600A9013330FB00BB30FC00DF30FD00FD0B16
:1001E600F228FC0BF228FB0BF22800000000AC28DA
:0201F600FB28E4
:020000040001F9
:04000E00E23F1316A4
:00000001FF
