:02000000562C7C
:100006002400141910281F301605F1007108003A53
:0E001600031D10280130F0001128F001080031
:100024002000F801F9011030FC00710DF80DF90DF4
:100034007408F8027508031C750FF90203182928BF
:100044007408F80775080318750FF9070310F00D05
:08005400F10DFC0B1728080058
:06005C0024001615080047
:1000620023009E1836280000312822003108230080
:040072009A000800E8
:100076002200B5010530350203184B283508330731
:1000860086000030343D870020308100B50A3D28C7
:100096003508330786000030343D87008101B503FB
:1000A60035083307B6000030343DB7000A30F40097
:1000B600F5013108F0003208F10012207808F0004E
:1000C6007908F1003030F00722003608860037083C
:1000D6008700700881000A30F400F5013108F0004D
:1000E6003208F100122070082200B1007108B20037
:1000F60000307106031D812800307006031D842818
:080106008628B5035328080008
:10010E002200B101B2013208123C031D90283108C1
:10011E008E3C031C9C2803207008031997289C28EA
:10012E002200B10A0319B20A8A28220012303202C2
:10013E00031DA3288F303102031CA8287B30F0004A
:10014E00AE2824001614161CAD28AA28F0010800AB
:10015E00200091112400961520009119B728B3287C
:10016E0024001108F10022003108003A031DC228B4
:10017E0024009616C4282400961220009111240003
:10018E00161620009119CC28C8287108F000080016
:10019E00200091112200310824009100141DD8284E
:1001AE00D52820009119DC28D8282400161BE12818
:0C01BE00F001E42816150230F0000800E3
:1001CA002200AA0127088400280885000008A9003F
:1001DA002908003A0319FF282908B1003120220012
:1001EA00AA0A2A08270784000030283D850000084B
:0601FA00A900ED28080039
:1002000087203C302200B100CF2022002708B10017
:0E021000CF2022002808B100CF202E200800A9
:10021E002200A901872022002708B100CF2022004A
:10022E002808B100CF2087202200270AB100CF2056
:10023E002200B101AF2070082200A9002E2022005A
:06024E002908F000080081
:100254002200AD01AE012708AF002808B0008030AD
:100264002806F00080307002031D3A29003027026E
:10027400031848290130AD000030AE002708003CC7
:10028400AF002808031C013EB001B0022F08B100E2
:100294003008B2002908B3002A08B4003B20063015
:1002A400AB000030AC002C08003C031D5B292B087C
:1002B400003C031876292B08290786002C082A3DC0
:1002C400870001302B02F00000302C3BF100700855
:1002D4002907840071082A3D850000088100013047
:1002E400AB020030AC3B5529290886002A08870058
:1002F400203081002D082E0403199C29AB01AC0188
:100304002B08290784002C082A3D85000008203A80
:10031400031D9029AB0A0319AC0A82290130AB02F0
:100324000030AC3B2B08290786002C082A3D8700A7
:060334002D3081000800DD
:10033A008720D0302200B100CF203E302200B10009
:10034A00CF2080302200B100CF202E208720D0304D
:10035A002200B100CF2015302200B100CF200A3090
:10036A002200B100CF202E208720D0302200B100F9
:10037A00CF2016302200B100CF201B302200B1005E
:10038A00CF202E208720D0302200B100CF203E304F
:10039A002200B100CF2003302200B100CF202E204E
:0203AA00080049
:1003AC00A6302200A7003230A8000F2170082100CF
:1003BC00EA00A6302200A7003330A8000F217008F5
:1003CC002100EB00A6302200A7003430A8000F213A
:1003DC0070082100EC00A6302200A7003530A800E0
:1003EC000F2170082100ED00A6302200A700363046
:1003FC00A8000F2170082100EE00A6302200A700F3
:10040C003730A8000F2170082100EF006B08F400B2
:10041C00F5017408F200F1016A087104E000720839
:10042C00E1000030E1046D08F400F5017408F200FD
:10043C00F1016C087104E2007208E3000030E3047F
:10044C007008F300F4017308F100F0016E087004F9
:0C045C00E4007108E5000030E504080031
:100468008720D0302200B100CF201D302200B100FB
:10047800CF208720D1302200B100CF2001302200C8
:10048800B100AF2070082100EA0001302200B1005D
:10049800AF2070082100EB0001302200B100AF202E
:1004A80070082100EC0001302200B100AF20700874
:1004B8002100ED0001302200B100AF2070082100BA
:1004C800EE002200B101AF2070082100EF002E20BD
:1004D80021006A08F300F4017308F100F0016B08C9
:1004E8007004DA007108DB000030DB046C08F300EC
:1004F800F4017308F100F0016D087004DC00710864
:10050800DD000030DD046E08F300F4017308F1002B
:10051800F0016F087004DE007108DF000030DF04AE
:020528000800C9
:10052A0087203C302200B100CF2003302200B100E6
:10053A00CF2087203D302200B100CF200130220099
:10054A00B100AF2070082100EA0001302200B1009A
:10055A00AF2070082100EB0001302200B100AF206B
:10056A0070082100EC0001302200B100AF207008B1
:10057A002100ED0001302200B100AF2070082100F7
:10058A00EE002200B101AF2070082100EF002E20FA
:10059A0021006A08F300F4017308F100F0016B0806
:1005AA007004C6007108C7000030C7046E08F30063
:1005BA00F4017308F100F0016F087004C4007108B7
:1005CA00C5000030C5046C08F300F4017308F1009B
:1005DA00F0016D087004C8007108C9000030C90430
:0205EA00080007
:1005EC0021006A082200A70021006B082200A80045
:1005FC002030A9000130AA002A212030A7000130A8
:06060C00A800E520080033
:100612002200A7011830A800002101302200A70003
:10062200A030A800002102302200A700A80100216A
:020632000800BE
:100634008720A6302200B100CF202D302200B10047
:10064400CF202200B101CF202E200730FC007D30C6
:10065400FD00FD0B2B2BFC0B2B2B8720A63022003F
:10066400B100CF2031302200B100CF200830220069
:10067400B100CF202E200730FC007D30FD00FD0BA3
:10068400412BFC0B412B8720A6302200B100CF2048
:100694002C302200B100CF2009302200B100CF203D
:1006A4002E200730FC007D30FD00FD0B572BFC0B8A
:1006B400572B8720A6302200B100CF202D302200F6
:1006C400B100CF2008302200B100CF202E20080036
:0806D400D62195223422080012
:1006DC00B3302200A7000030A800E52021006008FC
:1006EC00EA006108EB00F622C130A7000030A80038
:1006FC00E520BA30A7000030A800E52021006208F0
:10070C00EA006308EB00F6224430A7000030A80092
:10071C00E5203D30A7000030A800E520210064084A
:10072C00EA006508EB00F6223A30A7000030A8007A
:10073C00E5204E30A7000030A800E5204730A70088
:10074C000030A800E52021004408EA004508EB0031
:10075C00F6222A30A7000030A800E5202330A7009D
:10076C000030A800E52021004608EA004708EB000D
:10077C00F6222030A7000030A800E5203330A70077
:10078C000030A800E52021004808EA004908EB00E9
:10079C00F6223030A7000030A800E5202D30A7004D
:1007AC000030A800E5205130A7000030A800E5205B
:1007BC0021005A08EA005B08EB00F6226A30A70019
:1007CC000030A800E520A030A7000030A800E520EC
:1007DC0021005C08EA005D08EB00F622B030A700AF
:1007EC000030A800E520A830A7000030A800E520C4
:1007FC0021005E08EA005F08EB00F6226D30A700CE
:10080C000030A800E5206730A7000030A800E520E4
:02081C000800D2
:08081E001A2309239D210800A3
:1008260024001413941321008D140D16383024005F
:040836009500080021
:10083A0012001E00F003031D1D2CF103031D1D2CC5
:02084A000800A4
:10084C0031302100CA000030CB003130CC000130F7
:10085C00CD00FF30D600FF30D7000030D80000307C
:10086C00D900FF30D200FF30D3000030D40000306C
:10087C00D500FF30CE00FF30CF000030D00000306C
:10088C00D10023009E1690309D0021008D140D1177
:10089C002000911E552C23001908F0004E2C080046
:1008AC0020256A302100990023008C018D01210044
:1008BC008D0122001E149D1723009F1567309B008D
:1008CC0000309C001E15262421000D158D1282303F
:1008DC00FC00DD30FD00FD0B712CFC0B712C0000BD
:1008EC00000059302200A7000030A800E5200A3093
:1008FC002400920013248230FC00DD30FD00FD0B3F
:10090C00852CFC0B852C000000000F248230FC0091
:10091C00DD30FD00FD0B902CFC0B902C000000003A
:10092C006A236E230630FB001330FC00AD30FD0053
:10093C00FD0B9E2CFC0B9E2CFB0B9E2C0000000038
:04094C00962CA72C12
:100A4000AB308400843085004A30F0000130F10082
:100A500020308600003087001D241130840085304E
:100A600085000830F0000130F100A0308600003031
:100A700087001D2419308400853085000630F00081
:100A80000130F1006A308600003087001D24F53007
:100A90008400843085001C30F0000130F100A83063
:0A0AA0008600003087001D240800C6
:06095600203420340034BF
:0E095C0059345F346D34613467343A340034FA
:06096A00203420340034AB
:060970000D340A340034CE
:060976002034203400349F
:0E097C005A345F346D34613467343A340034D9
:06098A002034203400348B
:0E0990005A345F346134633463343A340034D3
:06099E0020342034003477
:0E09A40058345F346D34613467343A340034B3
:0609B2000D340A3400348C
:1009B80058345F346734793472346F343A340034DD
:1009C800473459342D34383435342034533474345E
:0C09D8006134723474340D340A3400347D
:0609E4000D340A3400345A
:1009EA005A345F346734793472346F343A340034A9
:0609FA002034203400341B
:0E0A000058345F346134633463343A34003464
:0E0A0E0059345F346134633463343A34003455
:060A1C00203420340034F8
:100A220059345F346734793472346F343A34003471
:060A3200203420340034E2
:060A3800203420340034DC
:020000040001F9
:04000E00E23F1316A4
:00000001FF
