:02000000AE2927
:1000080070082000A1007108A0008031111DA029EE
:100018002908003C031D1A282808003C031D1A283B
:100028002708003C031D1A282608003C03184A2804
:1000380000302902031D2A2800302802031D2A281F
:1000480030302702031D2A28D430260203184A28F4
:100058000D1C40280D10D430A2003030A300003011
:10006800A4000030A5002608A2022708A33B280800
:10007800A43B2908A53B49280D142608A2002708F7
:10008800A3002808A4002908A5006D282908003A1B
:10009800031D58282808003A031D58282708303A15
:1000A800031D58282608D43A031D5B280D14003078
:1000B800F0002906031D6A2870082806031D6A280F
:1000C80070082706031D6A282608003A031D6D28B4
:1000D8000D103108003C031D7B283008003C031D2F
:1000E8007B282F08003C031D7B282E08003C0318A2
:1000F800AB2800303102031D8B2800303002031D6D
:100108008B2830302F02031D8B28D4302E02031881
:10011800AB288C1FA1288C13D430A2003030A30048
:100128000030A4000030A5002E08A2022F08A33B2F
:100138003008A43B3108A53BAA288C172E08A2003A
:100148002F08A3003008A4003108A500CE283108E4
:10015800003A031DB9283008003A031DB9282F08B2
:10016800303A031DB9282E08D43A031DBC288C1731
:100178000030F0003106031DCB2870083006031D3F
:10018800CB2870082F06031DCB282E08003A031D24
:10019800CE288C133508003C031DDC283408003CAD
:1001A800031DDC283308003C031DDC283208003C12
:1001B80003180C2900303502031DEC2800303402E6
:1001C800031DEC2830303302031DEC28D4303202F2
:1001D80003180C298C1D02298C11D430A200303050
:1001E800A3000030A4000030A5003208A2023308A2
:1001F800A33B3408A43B3508A53B0B298C153208D2
:10020800A2003308A3003408A4003508A5002F294C
:100218003508003A031D1A293408003A031D1A2923
:100228003308303A031D1A293208D43A031D1D2910
:100238008C150030F0003506031D2C297008340693
:10024800031D2C2970083306031D2C293208003A97
:10025800031D2F298C112D08003C031D3D292C0856
:10026800003C031D3D292B08003C031D3D292A089D
:10027800003C03186D2900302D02031D4D29003064
:100288002C02031D4D2930302B02031D4D29D4307B
:100298002A0203186D290C1E63290C12D430A200FF
:1002A8003030A3000030A4000030A5002A08A202C4
:1002B8002B08A33B2C08A43B2D08A53B6C290C1646
:1002C8002A08A2002B08A3002C08A4002D08A500CA
:1002D80090292D08003A031D7B292C08003A031D9C
:1002E8007B292B08303A031D7B292A08D43A031DA1
:1002F8007E290C160030F0002D06031D8D2970088C
:100308002C06031D8D2970082B06031D8D292A082C
:10031800003A031D90290C122308F0002408F1006C
:100328002508F200F3017008250092002000220839
:1003380025009100200011112108F0002008F1008B
:020348000900AA
:10034A0012001E00F003031DA529F103031DA529B0
:02035A00080099
:10035C002000A201A301A401A501A601A701A801E7
:10036C00A901AA01AB01AC01AD01AE01AF01B00115
:10037C00B101B201B301B401B50123008C018D01AF
:10038C0021008C018D0120008C018D0130309800F2
:10039C00970196010B30250093000B309A000B301F
:1003AC00260093000B309A002000A201A301A401A7
:1003BC00A501111112101312931221001115121410
:1003CC0013169316C0308B00313020009800F23099
:1003DC00A6002B30A700A801A9016A30AE00183086
:1003EC00AF00B001B101C430B2000930B300B401A8
:1003FC00B501F230AA002B30AB00AC01AD01ED29F8
:02040C00062ABE
:020000040001F9
:04000E00A20F130624
:00000001FF
