:020000003428A2
:1000080070082000A0008031A40A2408003A031DCB
:1000180011280D148C178C150C1624082306031DA3
:1000280016280D1024082506031D1B288C132408E8
:100038002106031D20288C1124082206031D2528CB
:0E0048000C12FE3095000B112008F00009008C
:1000560012001E00F003031D2B28F103031D2B289D
:02006600080090
:100068002000A101A201A301A401A50123008C0184
:100078008D0121008C0120008C0121008D012000C0
:100088008D01073021009500A0308B00FE30200044
:100098009500C830A3006430A5003230A1001930A3
:0600A800A2004D285628BD
:020000040001F9
:04000E00A20F131614
:00000001FF
