:02000000A62830
:1000080070082000A0008031A10A2108003A031DD1
:1000180011280D148C178C150C1621082A06031D9F
:1000280016280D1021082B06031D1B288C132108E8
:100038002906031D20288C1121083306031D2528B5
:0E0048000C12FE3095000B112008F00009008C
:1000560023009E18302800002B2820004A08230081
:040066009A000800F4
:0A006A0071088A0070088200080087
:100074002000430886004408870049088100413174
:0C0084004108F0004208F100352008009F
:100090002B302000C1000030C2004A30C3000030C5
:1000A000C4007830BC000030BD000030BE0000301D
:1000B000BF00FF30B800FF30B9000030BA00003098
:1000C000BB00FF30B400FF30B5000030B600003098
:1000D000B70023009E1690309D0021008D140D1155
:1000E0002000911E772823001908F00070280800CE
:1000F00023001908F1009D1C7F281D121D16710890
:04010000F000080003
:100104002000C80145088400460885000008C7008F
:100114004708003A03199C284708C9003A202000E0
:10012400C80A4808450784000030463D8500000899
:06013400C7008A28080044
:10013A0012001E00F003031D9D28F103031D9D28D4
:02014A000800AB
:10014C002000A1015030A2005730A3004D30A40074
:10015C002B30A5000A30A6000D30A700A801A9017C
:10016C00AA01AB015030AC005730AD004D30AE00A1
:10017C002D30AF000A30B0000D30B100B201B30128
:10018C00F0302100990023008C018D0121008C019D
:10019C0020008C0121008D0120008D0122001E14F5
:1001AC009D17073021009500A0308B00FE302000F9
:1001BC00950023009F1540309B0003309C001E15BA
:1001CC00482021000D158D120530FB000F30FC006E
:1001DC00F130FD00FD0BF028FC0BF028FB0BF02898
:1001EC0004302000AA000130AB000130A9000F3010
:1001FC00B300782070082000C0007008613A031D1D
:10020C001C292230C5000030C60082200530FB00BE
:10021C000F30FC00F130FD00FD0B1229FC0B1229F4
:10022C00FB0B1229AA0AAB0AA90AB30A4008623AC4
:10023C00031D35292C30C5000030C6008220053046
:10024C00FB000F30FC00F130FD00FD0B2B29FC0BEB
:10025C002B29FB0B2B29AA03AB03A903B303FF2800
:02026C00362931
:020000040001F9
:04000E00A40F131612
:00000001FF
